:020000040800F2
:10000000A0060020890100081D060008150600084A
:10001000190600083B020008FB0D00080000000064
:10002000000000000000000000000000ED080008D3
:100030003F02000800000000CD060008010A000889
:10004000A3010008A3010008A3010008A301000800
:10005000A3010008A3010008A3010008A3010008F0
:10006000A3010008A3010008A3010008A3010008E0
:10007000A3010008A3010008A3010008A3010008D0
:10008000A3010008A3010008A3010008A3010008C0
:10009000A3010008A3010008A301000859020008F9
:1000A000A3010008A3010008A3010008A3010008A0
:1000B000A3010008A3010008A3010008A301000890
:1000C000A3010008A3010008A3010008A301000880
:1000D000A3010008ED0A0008A3010008A30100081D
:1000E000A3010008A3010008A301000800F002F822
:1000F00000F03AF80AA090E8000C82448344AAF188
:100100000107DA4501D100F02FF8AFF2090EBAE885
:100110000F0013F0010F18BFFB1A43F0010318473B
:100120004C0E00006C0E0000103A24BF78C878C155
:10013000FAD8520724BF30C830C144BF04680C60ED
:10014000704700000023002400250026103A28BF35
:1001500078C1FBD8520728BF30C148BF0B60704739
:100160001FB51FBD10B510BD00F031F81146FFF7E7
:10017000F7FF00F0B3FE00F04FF803B4FFF7F2FF13
:1001800003BC00F053F800000948804709480047C5
:10019000FEE7FEE7FEE7FEE7FEE7FEE7FEE7FEE737
:1001A000FEE7FEE704480549054A064B7047000094
:1001B000050A0008ED000008A0000020A0060020AD
:1001C000A0020020A00200207047704770477546CB
:1001D00000F028F8AE4605006946534620F00700B7
:1001E000854618B020B5FFF7DDFFBDE820404FF091
:1001F00000064FF000074FF000084FF0000B21F011
:100200000701AC46ACE8C009ACE8C009ACE8C009DD
:10021000ACE8C0098D4670470446AFF30080204625
:10022000FFF7ABFF0048704740000020014918204D
:10023000ABBEFEE726000200704700BFFEE7704736
:10024000002105E0002200E0521C8242FCD3491C40
:100250008142F7D37047000010B5202000F05EF80F
:1002600088B3202000F03EF84FF40051164800F00B
:10027000CFF9164800F058FED0B114480079CF28C5
:1002800009D113A1144800F057FC4FF400510E4857
:1002900000F0BEF90CE00D480079FC2808D10FA150
:1002A0000D4800F049FC4FF40051074800F0AEF94A
:1002B00000F01EFB40F6CA00FFF7C2FF4FF40051EA
:1002C000014800F0A3F910BD0014014020000020F7
:1002D00063660D0A000000000038014066630D0AE5
:1002E000000000000149086070470000140401404C
:1002F0001CB500F094F90521022000F0D3F820206D
:10030000009000208DF804000C208DF805000120DD
:100310008DF80600684600F015F81CBD0146002067
:100320000022074B1B6803EA0102054B14331B68CC
:100330000B4013B10AB1012000E00020704700001B
:1003400000040140002123498279002A3AD00A465C
:10035000126803689A430B461A600A1D1268036804
:100360009A430B1D1A60027911440A6803681A4304
:100370000A60184A0832126803689A43154B08331A
:100380001A601A1D126803689A43124B0C331A60E4
:100390004279102A0ED11A1F126803681A430D4BB6
:1003A00008331A601A1D126803681A43094B0C338C
:1003B0001A600DE00749427911440A6803681A433C
:1003C0000A6005E0027911440A6803689A430A60EA
:1003D000704700000004014008B50121352000F0FD
:1003E00077F9B020ADF8000010208DF8030003204D
:1003F0008DF802006946274800F074F81020ADF827
:1004000000008DF8030003208DF8020069462248A1
:1004100000F068F81021204800F0FAF84020ADF80C
:10042000000028208DF8030003208DF802006946A3
:10043000184800F057F842F22000ADF800004820BC
:100440008DF8030003208DF802006946124800F081
:1004500049F84FF40050ADF8000010208DF803006B
:1004600003208DF8020069460C4800F03BF84FF479
:1004700000510A4800F0CCF80120ADF800004820F7
:100480008DF8030003208DF802006946044800F04F
:1004900029F808BD00080140001001400014014087
:1004A0000018014030B500228B071C0F0F2303FA00
:1004B00004F20B4B8C1053F824309343084C8D10EE
:1004C00044F8253023468C1053F824308C07240F31
:1004D00000FA04F42343024C8D1044F8253030BD5B
:1004E000080001402DE9F0410246002500260020C9
:1004F00000230024002791F803C00CF00F0591F8A9
:1005000003C00CF0100CBCF1000F03D091F802C036
:100510004CEA050591F800C0BCF1000F31D0146819
:1005200000202BE04FF0010C0CFA00F3B1F800C0F2
:100530000CEA03069E4220D183004FF00F0C0CFA08
:1005400003F7BC4305FA03FC4CEA040491F803C02A
:10055000BCF1280F06D14FF0010C0CFA00FCC2F8D8
:1005600014C00AE091F803C0BCF1480F05D14FF068
:10057000010C0CFA00FCC2F810C0401C0828D1D3B2
:100580001460B1F800C0BCF1FF0F34DD54680020E6
:100590002EE000F1080C4FF0010808FA0CF3B1F856
:1005A00000C00CEA03069E4221D183004FF00F0CDD
:1005B0000CFA03F7BC4305FA03FC4CEA040491F877
:1005C00003C0BCF1280F05D100F1080C08FA0CF8A3
:1005D000C2F8148091F803C0BCF1480F07D100F1B4
:1005E000080C4FF0010808FA0CF8C2F81080401C03
:1005F0000828CED35460BDE8F081024600209368FD
:100600000B400BB1012000E00020704741617047B2
:100610000161704700BFFEE700BFFEE7704708B505
:100620004FF4E06000F048F817208DF8000000203B
:100630008DF801008DF8020001208DF80300684656
:1006400000F002F808BD000070B5002100230F2261
:10065000C47804B3154C246804F4E064C4F5E06481
:10066000210AC1F10403CA40447804FA03F18478F2
:100670001440214309010E4C0678A155047804F07A
:100680001F050124AC4005786D11AD0005F1E02592
:10069000C5F8004109E0047804F01F050124AC40CE
:1006A000044D0678761145F8264070BD0CED00E04B
:1006B00000E400E080E100E002490143024A1160E9
:1006C000704700000000FA050CED00E070470000E4
:1006D00029B1064A92690243044B9A6104E0034A35
:1006E00092698243014B9A617047000000100240FA
:1006F00030B500210022002400232D4D6D6805F047
:100700000C0121B1042905D0082923D105E0294D88
:10071000056022E0274D05601FE0254D6D6805F45A
:100720007012234D6D6805F48034022505EB92426A
:100730001CB9214D554305600BE01D4D6D6805F456
:1007400000351DB11C4D5543056002E0194D554360
:10075000056002E0174D056000BF00BF144D6D68D5
:1007600005F0F0010909154D6B5C0568DD40456039
:100770000F4D6D6805F4E061090A104D6B5C45682A
:10078000DD4085600A4D6D6805F46051C90A0B4D66
:100790006B5C4568DD40C560054D6D6805F4404102
:1007A000890B074D6B5CC568B5FBF3F5056130BD82
:1007B0000010024000127A0000093D000B000020EA
:1007C0001B00002070B5044600251DE004F08000E9
:1007D000802804D180210E48FFF71AFF03E0802112
:1007E0000B48FFF713FF6006040E20210848FFF7AF
:1007F0000FFF40210648FFF700FF04432021044873
:10080000FFF704FF681CC5B2082DDFDB204670BD72
:100810000008014070B505460C4610210748FFF757
:10082000F5FE2846FFF7CEFF06462046FFF7CAFF33
:1008300010210248FFF7ECFE304670BD0010014069
:1008400070B5044610210848FFF7E0FE2046FFF788
:10085000B9FF0020FFF7B6FF054610210248FFF759
:10086000D7FE284670BD0000001001402DE9F04180
:1008700007460D46164610210B48FFF7C7FE3846BF
:10088000FFF7A0FF8046002405E00020FFF79AFF55
:100890002855601CC4B2B442F7DB10210248FFF7B0
:1008A000B7FE4046BDE8F081001001402DE9F0415F
:1008B00007460C46154610210B48FFF7A7FE3846A1
:1008C000FFF780FF8046002605E014F8010BFFF7D4
:1008D00079FF701CC6B2AE42F7DB10210248FFF769
:1008E00097FE4046BDE8F0810010014070470000CF
:1008F00010B510210748FFF789FE0F212020FFF7D0
:1009000089FF10210348FFF783FE4FF4FA60FFF7D9
:1009100097FC10BD0008014010B500F001F810BDB3
:100920000CB50020019000903348006840F48030FE
:100930003149086000BF3048006800F40030009082
:100940000198401C0190009818B90198B0F5A06F6B
:10095000F1D12948006800F4003010B10120009066
:1009600001E0002000900098012843D1234800684E
:1009700040F01000214908600846006820F003009C
:1009800008600846006840F0020008601A484068A5
:10099000194948600846406848600846406840F485
:1009A000806048600846406820F47C104860084633
:1009B000406840F4E81048600846006840F08070E5
:1009C000086000BF0C48006800F000700028F9D0F3
:1009D0000948406820F0030007494860084640681D
:1009E00040F00200486000BF0348406800F00C007F
:1009F0000828F9D10CBD0000001002400020024080
:100A00007047000010B51348006840F0010011491C
:100A1000086008464068104908400E49486008468A
:100A200000680E4908400B4908600846006820F439
:100A3000802008600846406820F4FE0048604FF4BB
:100A40001F008860FFF768FF4FF0006004490860EE
:100A500010BD0000001002400000FFF8FFFFF6FE8E
:100A600008ED00E000B585B0012144F20400FFF775
:100A70002FFE4FF40070ADF8100003208DF8120027
:100A800018208DF8130004A91648FFF72BFD4FF42A
:100A90008060ADF8100004208DF8130004A91148FF
:100AA000FFF720FD4FF4E13000900020ADF8040086
:100AB000ADF80600ADF808000C20ADF80A000020E3
:100AC000ADF80C006946084800F022F901210648FB
:100AD00000F0B5F8012240F22551034800F0F2F889
:100AE00005B000BD000801400038014010B540F2DB
:100AF0002551104800F0BCF8D0B1002240F2255139
:100B00000C4800F0DFF80B4800F06EF9044621466F
:100B1000084800F06EF900BF8021064800F09BF8FD
:100B20000028F9D0012240F22551024800F0CAF80D
:100B300010BD0000003801400FB470B586B0064605
:100B40000CA8019073E00B9800785C281CD10B98DE
:100B5000401C0B9000786E2809D072280FD10D210F
:100B6000304600F046F90B98401C0B900BE00A2130
:100B7000304600F03EF90B98401C0B9003E00B98B8
:100B8000401C0B9000BF4BE00B980078252840D10B
:100B90000B98401C0B900078642818D0732833D130
:100BA000019810C801900BE02178304600F021F93F
:100BB00000BF4021304600F04EF80028F9D0641CF8
:100BC00020780028F0D10B98401C0B9020E0019871
:100BD00020C801900A2202A9284600F04DF902AC73
:100BE0000BE02178304600F004F900BF4021304688
:100BF00000F031F80028F9D0641C20780028F0D1EA
:100C00000B98401C0B9003E00B98401C0B9000BF0E
:100C100006E00B9810F8011B0B90304600F0E9F845
:100C200000BF4021304600F016F80028F9D00B989C
:100C30000078002887D106B070BC5DF814FB21B1A4
:100C4000828942F40052828104E082894DF6FF736A
:100C50001A408281704702460020B1F5007F00D122
:100C600000BF13880B400BB1012000E0002070474B
:100C700070B50246002400230025002040F66A16C5
:100C8000B14200D100BFC1F3421501F01F0301269C
:100C900006FA03F3012D02D19689334006E0022DB6
:100CA00002D1168A334001E0968A33400C120126A5
:100CB00006FA04F41688344013B10CB1012000E0A8
:100CC000002070BDF0B5034600240026002500205A
:100CD00040F66A17B94200D100BF1846C1F342146A
:100CE00001F01F06012707FA06F5012C01D10C308F
:100CF00004E0022C01D1103000E014301AB1076872
:100D00002F43076002E00768AF430760F0BD0000B3
:100D10002DE9F04786B005460E460024A24600BFE6
:100D2000A1460027B08900B100BF2F462C8A4CF69F
:100D3000FF700440F08804432C82AC894EF6F31017
:100D40000440B08831890843718908430443AC8169
:100D5000AC8A4FF6FF400440B0890443AC8201A83E
:100D6000FFF7C6FC1F48874202D1DDF810A001E062
:100D7000DDF80CA0A88900F4004040B10AEBCA00DD
:100D800000EB0A1031684900B0FBF1F807E00AEB0C
:100D9000CA0000EB0A1031688900B0FBF1F864204A
:100DA000B8FBF0F004012009642101FB1089A88937
:100DB00000F4004040B1322000EBC900B0FBF1F07C
:100DC00000F00700044308E0322000EB0910642122
:100DD000B0FBF1F000F00F0004432C8106B0BDE839
:100DE000F08700000038014001468888C0F3080001
:100DF0007047C1F308028280704700BFFEE7000021
:100E000010B54FF49670FFF71BFA10211648FFF744
:100E1000FDFB10211548FFF7FBFB20211248FFF7CF
:100E2000F5FB052212493020FFF740FD052211494C
:100E30002A20FFF73BFD01212120FFF7EBFC0121D8
:100E40002220FFF7E7FC00212520FFF7E3FC20210B
:100E50003120FFF7DFFC07212620FFF7DBFC0F2105
:100E60002020FFF7D7FC10BD000801400010014012
:100E70000000002005000020F0B503460D46164690
:100E8000002729460A2E03D0002008702846F0BD0E
:100E900033B9302001F8010B002008702846F6E72E
:100EA000002B03DA2D2001F8010B5B4242F2107295
:100EB0000DE093FBF2F404B937B104F1300001F80E
:100EC000010B04FB123301270A2092FBF0F2002AE7
:100ED000EFDC002008702846D9E70000FFF77CFA15
:100EE000FFF706FAFFF7BEFDFFF78AFF07A10C48E0
:100EF000FFF722FE4FF400510A48FFF787FBFA2064
:100F0000FFF79EF9FFF7F4FC00BFFEE70D0A20692A
:100F10006E697420636F6D706C657465200D0A00D6
:100F2000003801400014014070B504460025072038
:100F3000FFF786FC0B49087008460078C0F3801064
:100F400048B110210848FFF761FB202221466120AB
:100F5000FFF78CFC0125034801782720FFF75AFC96
:100F6000284670BD0A000020000801408C0F0008D0
:100F7000000000202000000028010008AC0F00083D
:100F800020000020800600004401000834431010B7
:100F900001344310100100000000000102030401AD
:0C0FA0000203040607080902040608000A
:04000005080000ED02
:00000001FF
